{
  "contractName": "Jukebox",
  "abi": [
    {
      "anonymous": false,
      "inputs": [
        {
          "indexed": false,
          "name": "_ethReceived",
          "type": "uint256"
        },
        {
          "indexed": false,
          "name": "_url",
          "type": "string"
        }
      ],
      "name": "quarterEntered",
      "type": "event",
      "signature": "0x3e13723c6dfcd1d99e690ad589c59ec50ce4a63201478bf6acca59bfe500c3d3"
    },
    {
      "constant": false,
      "inputs": [
        {
          "name": "_url",
          "type": "string"
        }
      ],
      "name": "insertQuarter",
      "outputs": [],
      "payable": true,
      "stateMutability": "payable",
      "type": "function",
      "signature": "0x4403e801"
    }
  ],
  "bytecode": "0x608060405234801561001057600080fd5b506101d4806100206000396000f3fe608060405260043610610041576000357c0100000000000000000000000000000000000000000000000000000000900463ffffffff1680634403e80114610046575b600080fd5b6100ff6004803603602081101561005c57600080fd5b810190808035906020019064010000000081111561007957600080fd5b82018360208201111561008b57600080fd5b803590602001918460018302840111640100000000831117156100ad57600080fd5b91908080601f016020809104026020016040519081016040528093929190818152602001838380828437600081840152601f19601f820116905080830192505050505050509192919290505050610101565b005b7f3e13723c6dfcd1d99e690ad589c59ec50ce4a63201478bf6acca59bfe500c3d334826040518083815260200180602001828103825283818151815260200191508051906020019080838360005b8381101561016a57808201518184015260208101905061014f565b50505050905090810190601f1680156101975780820380516001836020036101000a031916815260200191505b50935050505060405180910390a15056fea165627a7a72305820a8a30ceab5b1636af0f5b6febc3b1dc23c3e48bb450f28a4283e8bfd4ff070620029",
  "source": "pragma solidity >=0.4.21 <0.6.0;\n\n\n// This is a simple example of a coin-like contract.\n// It is not standards compatible and cannot be expected to talk to other\n// coin/token contracts. If you want to create a standards-compliant\n// token, see: https://github.com/ConsenSys/Tokens. Cheers!\n\ncontract Jukebox {\n\n   event quarterEntered(uint _ethReceived, string _url );\n\n\n    function insertQuarter(string memory _url) public payable {\n    emit quarterEntered(msg.value, _url);\n} \n}\n",
  "sourcePath": "/Users/mcplums/Repos/EthereumJukebox/contracts/Jukebox.sol",
  "compiler": {
    "name": "solc",
    "version": "0.5.0+commit.1d4f565a.Emscripten.clang"
  },
  "schemaVersion": "3.0.3",
  "updatedAt": "2019-04-01T09:56:01.040Z",
  "devdoc": {
    "methods": {}
  },
  "userdoc": {
    "methods": {}
  }
}